{
  "contractName": "Mapper",
  "abi": [
    {
      "constant": true,
      "inputs": [],
      "name": "priceRead",
      "outputs": [
        {
          "name": "",
          "type": "uint256"
        }
      ],
      "payable": false,
      "stateMutability": "view",
      "type": "function"
    },
    {
      "constant": true,
      "inputs": [],
      "name": "priceAuthor",
      "outputs": [
        {
          "name": "",
          "type": "uint256"
        }
      ],
      "payable": false,
      "stateMutability": "view",
      "type": "function"
    },
    {
      "constant": true,
      "inputs": [
        {
          "name": "",
          "type": "bytes32"
        }
      ],
      "name": "authors",
      "outputs": [
        {
          "name": "",
          "type": "address"
        }
      ],
      "payable": false,
      "stateMutability": "view",
      "type": "function"
    },
    {
      "constant": false,
      "inputs": [
        {
          "name": "locationID",
          "type": "string"
        }
      ],
      "name": "store",
      "outputs": [],
      "payable": false,
      "stateMutability": "nonpayable",
      "type": "function"
    },
    {
      "constant": false,
      "inputs": [
        {
          "name": "locationID",
          "type": "string"
        }
      ],
      "name": "read",
      "outputs": [],
      "payable": true,
      "stateMutability": "payable",
      "type": "function"
    }
  ],
  "bytecode": "0x608060405234801561001057600080fd5b50610443806100206000396000f30060806040526004361061006d576000357c0100000000000000000000000000000000000000000000000000000000900463ffffffff168063131a068014610072578063550fa54b146100db578063616ffe831461010657806382a0f88d14610162578063d81aa1981461018d575b600080fd5b34801561007e57600080fd5b506100d9600480360381019080803590602001908201803590602001908080601f01602080910402602001604051908101604052809392919081815260200183838082843782019150505050505091929192905050506101fe565b005b3480156100e757600080fd5b506100f061027b565b6040518082815260200191505060405180910390f35b610160600480360381019080803590602001908201803590602001908080601f0160208091040260200160405190810160405280939291908181526020018383808284378201915050505050509192919290505050610287565b005b34801561016e57600080fd5b506101776103ad565b6040518082815260200191505060405180910390f35b34801561019957600080fd5b506101bc60048036038101908080356000191690602001909291905050506103b9565b604051808273ffffffffffffffffffffffffffffffffffffffff1673ffffffffffffffffffffffffffffffffffffffff16815260200191505060405180910390f35b610207816103ec565b60028160001916905550336000806002546000191660001916815260200190815260200160002060006101000a81548173ffffffffffffffffffffffffffffffffffffffff021916908373ffffffffffffffffffffffffffffffffffffffff16021790555060006002816000191690555050565b6729a2241af62c000081565b6729a2241af62c00003414151561029d57600080fd5b6102a6816103ec565b600281600019169055506000806002546000191660001916815260200190815260200160002060009054906101000a900473ffffffffffffffffffffffffffffffffffffffff16600160006101000a81548173ffffffffffffffffffffffffffffffffffffffff021916908373ffffffffffffffffffffffffffffffffffffffff160217905550600160009054906101000a900473ffffffffffffffffffffffffffffffffffffffff1673ffffffffffffffffffffffffffffffffffffffff166108fc671bc16d674ec800009081150290604051600060405180830381858888f1935050505015801561039d573d6000803e3d6000fd5b5060006002816000191690555050565b671bc16d674ec8000081565b60006020528060005260406000206000915054906101000a900473ffffffffffffffffffffffffffffffffffffffff1681565b600060608290506000815114156104095760006001029150610411565b602083015191505b509190505600a165627a7a72305820d05bdd07e5ae114f4229250e5996cd5c6dce8db46fa07ba57aa7211d3b3ecf320029",
  "source": "pragma solidity ^0.4.17;\r\n\r\n\r\n\r\ncontract Mapper {\r\n    uint public constant priceRead = 3 ether;\r\n    uint public constant priceAuthor = 2 ether;\r\n    mapping (bytes32 => address) public authors;\r\n    address private tempAddress;\r\n    bytes32 private tempString;\r\n\r\n\r\n    function stringToBytes32(string memory source) private pure returns (bytes32 result) {\r\n        bytes memory tempEmptyStringTest = bytes(source);\r\n        if (tempEmptyStringTest.length == 0) {\r\n            return 0x0;\r\n        }\r\n        assembly {\r\n            result := mload(add(source, 32))\r\n        }\r\n    }\r\n\r\n\r\n\r\n    function store(string locationID) public {\r\n        tempString = stringToBytes32(locationID);\r\n        authors[tempString] = msg.sender;\r\n        tempString = \"\";\r\n    }\r\n\r\n\r\n\r\n    function read(string locationID) public payable {\r\n        if(msg.value != priceRead){\r\n            revert();\r\n        }\r\n        tempString = stringToBytes32(locationID);\r\n        tempAddress = authors[tempString];\r\n        tempAddress.transfer(priceAuthor);\r\n        tempString = \"\";\r\n    }\r\n}\r\n\r\n\r\n",
  "sourcePath": "C:\\Users\\stefa\\Desktop\\mapper - Copy\\smartcontract\\contracts\\Mapper.sol",
  "compiler": {
    "name": "solc",
    "version": "0.4.24+commit.e67f0147.Emscripten.clang"
  },
  "schemaVersion": "2.0.1",
  "updatedAt": "2018-07-20T11:13:24.683Z"
}